000FARMA LOGISTICA E ARMAZENS GERAIS LRECKITT BENCKISER  HEALTH COMERCIAL1709241518OCO170915187                                                                                                                                                           
540OCORR170915187                                                                                                                                                                                                                                         
54104019475000423FARMA LOGISTICA E ARMAZENS GERAIS LTDA                                                                                                                                                                                                   
5423157006700035701 00001605409117092024145600                                                                                46        4    1373935                00000000000000000000000000000000000000000000000000000000000000   00000000018092024090920241720170920241456    
5423157006700035701 00001591609117092024145600                                                                                46        4    1373982                00000000000000000000000000000000000000000000000000000000000000   00000000018092024090920241720170920241456    
5423157006700035701 00001597809117092024145600                                                                                46        4    1373982                00000000000000000000000000000000000000000000000000000000000000   00000000018092024090920241720170920241456    
5423157006700035701 00001598709117092024145600                                                                                46        4    1374056                00000000000000000000000000000000000000000000000000000000000000   00000000018092024090920241720170920241456    
5423157006700035701 00001651010117092024135000                                                                                46        4    1374700                00000000000000000000000000000000000000000000000000000000000000   00000000000000000000000000000000000000000    
5423157006700035701 00001651008417092024135400                                                                                46        4    1374700                00000000000000000000000000000000000000000000000000000000000000   00000000000000000000000000000000000000000    
5423157006700035701 00001768414217092024150100                                                                                46        4    1376608                00000000000000000000000000000000000000000000000000000000000000   00000000000000000000000000000000000000000    
5423157006700035701 00001769014217092024150100                                                                                46        4    1376608                00000000000000000000000000000000000000000000000000000000000000   00000000000000000000000000000000000000000    
5423157006700035701 00001769314217092024150100                                                                                46        4    1376608                00000000000000000000000000000000000000000000000000000000000000   00000000000000000000000000000000000000000    
5423157006700035701 00001769414217092024150100                                                                                46        4    1376608                00000000000000000000000000000000000000000000000000000000000000   00000000000000000000000000000000000000000    
5423157006700035701 00001769614217092024150100                                                                                46        4    1376608                00000000000000000000000000000000000000000000000000000000000000   00000000000000000000000000000000000000000    
5423157006700035701 00001769714217092024150100                                                                                46        4    1376608                00000000000000000000000000000000000000000000000000000000000000   00000000000000000000000000000000000000000    
5423157006700035701 00001771314217092024150100                                                                                46        4    1376608                00000000000000000000000000000000000000000000000000000000000000   00000000000000000000000000000000000000000    
5423157006700035701 00001772714217092024150100                                                                                46        4    1376608                00000000000000000000000000000000000000000000000000000000000000   00000000000000000000000000000000000000000    
5423157006700035701 00001772814217092024150100                                                                                46        4    1376608                00000000000000000000000000000000000000000000000000000000000000   00000000000000000000000000000000000000000    
5423157006700035701 00001776014217092024150100                                                                                46        4    1376608                00000000000000000000000000000000000000000000000000000000000000   00000000000000000000000000000000000000000    
5423157006700035701 00001776614217092024150100                                                                                46        4    1376608                00000000000000000000000000000000000000000000000000000000000000   00000000000000000000000000000000000000000    
5423157006700035701 00001777814217092024150100                                                                                46        4    1376608                00000000000000000000000000000000000000000000000000000000000000   00000000000000000000000000000000000000000    
5423157006700035701 00001779914217092024150100                                                                                46        4    1376608                00000000000000000000000000000000000000000000000000000000000000   00000000000000000000000000000000000000000    
5423157006700035701 00001780614217092024150100                                                                                46        4    1376608                00000000000000000000000000000000000000000000000000000000000000   00000000000000000000000000000000000000000    
5423157006700035701 00001780714217092024150100                                                                                46        4    1376608                00000000000000000000000000000000000000000000000000000000000000   00000000000000000000000000000000000000000    
5423157006700035701 00001780814217092024150100                                                                                46        4    1376608                00000000000000000000000000000000000000000000000000000000000000   00000000000000000000000000000000000000000    
5423157006700035701 00001780914217092024150100                                                                                46        4    1376608                00000000000000000000000000000000000000000000000000000000000000   00000000000000000000000000000000000000000    
5423157006700035701 00001781114217092024150100                                                                                46        4    1376608                00000000000000000000000000000000000000000000000000000000000000   00000000000000000000000000000000000000000    
5423157006700035701 00001781214217092024150100                                                                                46        4    1376608                00000000000000000000000000000000000000000000000000000000000000   00000000000000000000000000000000000000000    
5423157006700035701 00001781314217092024150100                                                                                46        4    1376608                00000000000000000000000000000000000000000000000000000000000000   00000000000000000000000000000000000000000    
5423157006700035701 00001781514217092024150100                                                                                46        4    1376608                00000000000000000000000000000000000000000000000000000000000000   00000000000000000000000000000000000000000    
5423157006700035701 00001781614217092024150100                                                                                46        4    1376608                00000000000000000000000000000000000000000000000000000000000000   00000000000000000000000000000000000000000    
5423157006700035701 00001782014217092024150100                                                                                46        4    1376608                00000000000000000000000000000000000000000000000000000000000000   00000000000000000000000000000000000000000    
5423157006700035701 00001782114217092024150100                                                                                46        4    1376608                00000000000000000000000000000000000000000000000000000000000000   00000000000000000000000000000000000000000    
5423157006700035701 00001761214217092024150100                                                                                46        4    1376628                00000000000000000000000000000000000000000000000000000000000000   00000000000000000000000000000000000000000    
5423157006700035701 00001761314217092024150100                                                                                46        4    1376628                00000000000000000000000000000000000000000000000000000000000000   00000000000000000000000000000000000000000    
5423157006700035701 00001815614217092024150100                                                                                46        4    1376634                00000000000000000000000000000000000000000000000000000000000000   00000000000000000000000000000000000000000    
5423157006700035701 00001789614217092024150100                                                                                46        4    1376635                00000000000000000000000000000000000000000000000000000000000000   00000000000000000000000000000000000000000    
5423157006700035701 00001790214217092024150100                                                                                46        4    1376635                00000000000000000000000000000000000000000000000000000000000000   00000000000000000000000000000000000000000    
5423157006700035701 00001771814217092024150100                                                                                46        4    1376650                00000000000000000000000000000000000000000000000000000000000000   00000000000000000000000000000000000000000    
5423157006700035701 00001771914217092024150100                                                                                46        4    1376650                00000000000000000000000000000000000000000000000000000000000000   00000000000000000000000000000000000000000    
5423157006700035701 00001781814217092024150100                                                                                46        4    1376650                00000000000000000000000000000000000000000000000000000000000000   00000000000000000000000000000000000000000    
5490046                                                                                                                                                                                                                                                   